:100000000C9434000C9446000C9446000C9446006A
:100010000C9446000C9446000C9446000C94460048
:100020000C9446000C9446000C9446000C94460038
:100030000C9446000C9446000C9446000C94460028
:100040000C9446000C9446000C9446000C94460018
:100050000C9446000C9446000C9446000C94460008
:100060000C9446000C94460011241FBECFEFD8E03C
:10007000DEBFCDBF21E0A0E0B1E001C01D92A23003
:10008000B207E1F70E94D6010C94DA010C9400004B
:1000900081E090E020E80FB6F8942093610080930F
:1000A00061000FBE80E388B987E484B98FEA8AB91A
:1000B00053EA54BD49E045BD30EA37BD21E028BDD3
:1000C00082EA8093800089E18093810080EA90E059
:1000D000909387008093860081E090E09093890060
:1000E0008093880090938B0080938A005093B00097
:1000F0004093B1003093B3002093B400089589E198
:10010000089589E10895909100019230E1F02CF476
:10011000992341F0913061F039C09330F1F094307F
:1001200049F134C0589859985A98893190F110C0C3
:10013000589A59985A98853118F41092000129C09C
:100140008E3138F10FC0589A599A5A988A3110F462
:1001500081E00DC08332E8F019C0589A599A5A9A32
:100160008F3110F482E003C0883298F084E08093ED
:1001700000010FC0589A599A5A9A282F220F2055D9
:10018000843230F483E08093000102C083E0EFCF3B
:1001900027FD20E0822F992787FD909590938B0073
:1001A00080938A002093B4000895909101019230C9
:1001B000E1F02CF4992341F0913061F03DC093308F
:1001C000F1F0943049F138C028985F982E98833226
:1001D000B0F110C0289A5F982E988F3118F41092C1
:1001E00001012DC0883258F10FC0289A5F9A2E98CD
:1001F000843210F481E00DC08D3208F11DC0289AC0
:100200005F9A2E9A893210F482E003C08233B8F0EC
:1002100084E08093010113C0289A5F9A2E9A282FB8
:1002200030E022533109922F990F920F8E3230F421
:1002300083E08093010102C083E0EBCF97FD90E063
:1002400098BD892F992787FD909590938900809379
:1002500088000895FC018081811102C02E9801C0A0
:100260002E9A8181811102C05F9801C05F9A8281BC
:10027000811102C0289801C0289A8381811102C08F
:100280005A9801C05A9A8481811102C0599801C0BC
:10029000599A8581811102C058980895589A0895F5
:1002A000CF93DF9300D000D000D0CDB7DEB78E0162
:1002B0000F5F1F4F86E0F80111928A95E9F7E12C54
:1002C000D12CC12CB12CFF24F394F0EAFB1508F4D7
:1002D000B12C20EA2C1508F4C12C80EA8D1508F405
:1002E000D12C90EA9E1508F4E12CB8BC8C2D90E03E
:1002F00090938900809388008D2D90E090938B00DF
:1003000080938A00E092B400C8010E942A01EFE7BE
:10031000F8E321E0E150F0402040E1F700C00000A8
:100320008981813039F419821A821B821C821D82D4
:100330001E8206C0F982FA82FB82FC82FD82FE8266
:10034000B394C394D394E394C0CFCFE0CC3388F478
:100350008C2F0E9483008C2F0E94D5002FE789EA02
:1003600093E0215080409040E1F700C00000CF5F53
:10037000EDCFCCE38C2F0E9483008C2F0E94D50000
:100380002FE789EA93E0215080409040E1F700C0D8
:100390000000C150CF3071F72FE789EA93E0215078
:1003A00080409040E1F700C00000D2CF0E9448009A
:0803B0000E94A501F894FFCFA3
:00000001FF
