:100000000C9434000C943E000C943E000C943E0082
:100010000C943E000C943E000C943E000C943E0068
:100020000C943E000C943E000C943E000C943E0058
:100030000C943E000C943E000C943E000C943E0048
:100040000C943E000C943E000C943E000C943E0038
:100050000C943E000C943E000C943E000C943E0028
:100060000C943E000C943E0011241FBECFEFD8E04C
:10007000DEBFCDBF0E94F2000C94F6000C9400008D
:1000800081E090E020E80FB6F8942093610080931F
:1000900061000FBE80E388B987E484B98FEA8AB92A
:1000A00053EA54BD49E045BD30EA37BD21E028BDE3
:1000B00082EA8093800089E18093810080EA90E069
:1000C000909387008093860081E090E09093890070
:1000D0008093880090938B0080938A005093B000A7
:1000E0004093B1003093B3002093B4000895FC0115
:1000F0008081811102C02E9801C02E9A81818111C8
:1001000002C05F9801C05F9A8281811102C0289865
:1001100001C0289A8381811102C05A9801C05A9A5D
:100120008481811102C0599801C0599A8581811139
:1001300002C058980895589A0895CF93DF9300D03D
:1001400000D000D0CDB7DEB78E010F5F1F4F86E025
:10015000F80111928A95E9F7E12CD12CC12CB12C30
:10016000FF24F394F0EAFB1508F4B12C20EA2C15D7
:1001700008F4C12C80EA8D1508F4D12C90EA9E1564
:1001800008F4E12CB8BC8C2D90E09093890080930A
:1001900088008D2D90E090938B0080938A00E092F0
:1001A000B400C8010E947700EFE7F8E321E0E150D6
:1001B000F0402040E1F700C000008981813039F42F
:1001C00019821A821B821C821D821E8206C0F9823D
:1001D000FA82FB82FC82FD82FE82B394C394D394A4
:1001E000E394C0CF0E9440000E949D00F894FFCF8E
:00000001FF
