:100000000C9434000C9446000C9446000C9446006A
:100010000C9446000C9446000C9446000C94460048
:100020000C9446000C9446000C9446000C94460038
:100030000C9446000C9446000C9446000C94460028
:100040000C9446000C9446000C9446000C94460018
:100050000C9446000C9446000C9446000C94460008
:100060000C9446000C94460011241FBECFEFD8E03C
:10007000DEBFCDBF21E0A0E0B1E001C01D92A23003
:10008000B207E1F70E94B3010C94B1030C94000095
:1000900081E090E020E80FB6F8942093610080930F
:1000A00061000FBE87EC84B98CEB8AB985E0809340
:1000B0007C0083EC80937A0083E384BD49E045BDF6
:1000C00030EA37BD21E028BD82EA8093800089E1D3
:1000D0008093810080EA90E090938700809386006F
:1000E00081E090E0909389008093880090938B004A
:1000F00080938A0083EA8093B0004093B1003093EC
:10010000B3002093B400089583E080937C008FE4D3
:1001100093EC0197F1F700C0000080917A008064B1
:1001200080937A0080917A0086FDFCCF6091780000
:100130007091790080E090E00E94C00223E333E1F7
:1001400045E953E40E944E0320E030E845E154E4E1
:100150000E942C0223E333E948E853E40E94C701DC
:100160000E949402862F089584E080937C008FE49F
:1001700093EC0197F1F700C0000080917A00806451
:1001800080937A0080917A0086FDFCCF60917800A0
:100190007091790080E090E00E94C00223E333E197
:1001A00045E953E40E944E0320E030E843E154E483
:1001B0000E942C0223E333E948E853E40E94C7017C
:1001C0000E949402862F0895909100019230E1F0F0
:1001D0002CF4992341F0913061F039C09330F1F063
:1001E000943049F134C05A985C982E98893190F136
:1001F00010C05A9A5C982E98853118F4109200011C
:1002000029C08E3138F10FC05A9A5C9A2E988A31E3
:1002100010F481E00DC08332E8F019C05A9A5C9A5C
:100220002E9A8F3110F482E003C0883298F084E077
:10023000809300010FC05A9A5C9A2E9A282F220FA1
:100240002055843230F483E08093000102C083E0C3
:10025000EFCF27FD20E0822F992787FD909590937F
:100260008B0080938A002093B4000895909101013F
:100270009230E1F02CF4992341F0913061F03DC0CF
:100280009330F1F0943049F138C02F985F98289856
:100290008332B0F110C02F9A5F9828988F3118F4EC
:1002A000109201012DC0883258F10FC02F9A5F9A29
:1002B0002898843210F481E00DC08D3208F11DC001
:1002C0002F9A5F9A289A893210F482E003C0823311
:1002D000B8F084E08093010113C02F9A5F9A289AA6
:1002E000282F30E022533109922F990F920F8E322E
:1002F00030F483E08093010102C083E0EBCF97FDEF
:1003000090E098BD892F992787FD9095909389005B
:10031000809388000895CFE0CC3388F48C2F0E941E
:10032000E4008C2F0E9436012FE789EA93E02150E8
:1003300080409040E1F700C00000CF5FEDCFCCE3FC
:100340008C2F0E94E4008C2F0E9436012FE789EA4F
:1003500093E0215080409040E1F700C00000C15080
:10036000CF3071F7DBCF0E9448000E94B4000E949A
:10037000E4000E9484000E9436012FEF84E39CE099
:10038000215080409040E1F700C00000EECF50586F
:10039000BB27AA270ED048C139D130F03ED120F07A
:1003A00031F49F3F11F41EF42EC10EF4E095E7FBEB
:1003B00024C1E92F4AD180F3BA1762077307840773
:1003C000950718F071F49EF562C10EF4E0950B2EBE
:1003D000BA2FA02D0B01B90190010C01CA01A00197
:1003E0001124FF27591B99F0593F50F4503E68F1F2
:1003F0001A16F040A22F232F342F4427585FF3CF33
:10040000469537952795A795F0405395C9F77EF403
:100410001F16BA0B620B730B840BBAF09150A1F04C
:10042000FF0FBB1F661F771F881FC2F70EC0BA0FD2
:10043000621F731F841F48F4879577956795B7955A
:10044000F7959E3F08F0B3CF9395880F08F0992752
:10045000EE0F9795879508950CD0E6C0DED040F05A
:10046000D5D030F021F45F3F19F0C7C0511110C151
:10047000CAC0EBD098F39923C9F35523B1F3951B68
:10048000550BBB27AA2762177307840738F09F5FB5
:100490005F4F220F331F441FAA1FA9F333D00E2E24
:1004A0003AF0E0E830D091505040E695001CCAF791
:1004B00029D0FE2F27D0660F771F881FBB1F261756
:1004C00037074807AB07B0E809F0BB0B802DBF0129
:1004D000FF2793585F4F2AF09E3F510568F08DC06B
:1004E000D7C05F3FECF3983EDCF386957795679530
:1004F000B795F7959F5FC9F7880F911D96958795DA
:1005000097F90895E1E0660F771F881FBB1F6217F8
:1005100073078407BA0720F0621B730B840BBA0BB6
:10052000EE1F88F7E095089598D088F09F5790F0D7
:10053000B92F9927B751A0F0D1F0660F771F881F08
:10054000991F1AF0BA95C9F712C0B13081F09FD047
:10055000B1E008959CC0672F782F8827B85F39F0E5
:10056000B93FCCF3869577956795B395D9F73EF467
:1005700090958095709561957F4F8F4F9F4F08950F
:10058000E89409C097FB3EF490958095709561952D
:100590007F4F8F4F9F4F9923A9F0F92F96E9BB27E3
:1005A0009395F695879577956795B795F111F8CF5F
:1005B000FAF4BB0F11F460FF1BC06F5F7F4F8F4FCA
:1005C0009F4F16C0882311F096E911C0772321F0C0
:1005D0009EE8872F762F05C0662371F096E8862F58
:1005E00070E060E02AF09A95660F771F881FDAF7AF
:1005F000880F9695879597F9089597F99F6780E8F2
:1006000070E060E008959FEF80EC089500240A9464
:100610001616170618060906089500240A941216DD
:100620001306140605060895092E0394000C11F410
:10063000882352F0BB0F40F4BF2B11F460FF04C0BD
:100640006F5F7F4F8F4F9F4F089557FD9058440F16
:10065000551F59F05F3F71F04795880F97FB991F21
:1006600061F09F3F79F087950895121613061406DE
:10067000551FF2CF4695F1DF08C01616170618066B
:10068000991FF1CF86957105610508940895E89446
:10069000BB2766277727CB0197F908950BD0C4CFE6
:1006A000B5DF28F0BADF18F0952309F0A6CFABCF5D
:1006B0001124EECFCADFA0F3959FD1F3950F50E040
:1006C000551F629FF001729FBB27F00DB11D639F04
:1006D000AA27F00DB11DAA1F649F6627B00DA11DAA
:1006E000661F829F2227B00DA11D621F739FB00D50
:1006F000A11D621F839FA00D611D221F749F3327C0
:10070000A00D611D231F849F600D211D822F762F58
:100710006A2F11249F5750408AF0E1F088234AF055
:10072000EE0FFF1FBB1F661F771F881F91505040A1
:10073000A9F79E3F510570F060CFAACF5F3FECF361
:10074000983EDCF3869577956795B795F795E7958D
:100750009F5FC1F7FE2B880F911D9695879597F99E
:060760000895F894FFCF9C
:00000001FF
