:100000000C9434000C945D000C9451000C9451003D
:100010000C9451000C9451000C9451000C9451001C
:100020000C9451000C9451000C9451000C9451000C
:100030000C9451000C9451000C9453000C945100FA
:100040000C9451000C9451000C9451000C945100EC
:100050000C9451000C9451000C9451000C945100DC
:100060000C9451000C94510011241FBECFEFD8E026
:10007000DEBFCDBF11E0A0E0B1E0E4EAF9E002C0EC
:1000800005900D92A032B107D9F721E0A0E2B1E0CE
:1000900001C01D92A232B207E1F70E94FB010C944D
:1000A000D0040C9400001F920F920FB60F921124EF
:1000B0000F900FBE0F901F9018951F920F920FB6C2
:1000C0000F9211248F939F93809120019091210191
:1000D000019690932101809320019F918F910F9021
:1000E0000FBE0F901F90189581E090E020E80FB6AA
:1000F000F89420936100809361000FBE8CE00E9411
:10010000C6010E948D0183E08BB990EE9AB980936D
:10011000690081E08DBB93EA94BD99E095BD92E0C2
:1001200090936E0090EA97BD88BD0895FC011182FE
:1001300010827894FFEF24E33CE0F15020403040FF
:10014000E1F700C00000F894FC01808191812EE16C
:10015000AC01249FC001259F900D11240895CF93D9
:10016000DF93CDB7DEB760970FB6F894DEBF0FBE52
:10017000CDBFB12C90E0C92E91E0D92E8E010F5F3A
:100180001F4F20E1E22E21E0F22E21EAB21639F0D3
:100190002B1510F0B11005C05F98B12C03C080EA98
:1001A000B82E5F9AB8BC1F92BF92DF92CF921F9376
:1001B0000F930E94FF0160E080E00E948401C8016B
:1001C0000E94AD011F92BF92FF92EF921F930F9377
:1001D0000E94FF0161E080E00E948401C8010E944A
:1001E000AD0189B10FB6F894DEBF0FBECDBF8370ED
:1001F000813021F0823019F4BA9401C0B3948FE4B5
:1002000093EC0197F1F700C00000BFCF429A00C005
:1002100042980895CF93DF931F92CDB7DEB7662340
:1002200011F0419A01C041984398229A239A249A46
:10023000259A2D982C982B982A9887FD2D9A86FD23
:100240002C9A85FD2B9A84FD2A9A8983DFDF2D98CD
:100250002C982B982A98898183FD2D9A82FD2C9ABF
:1002600081FD2B9A80FD2A9AD1DF2A9A2B9A2C9A0B
:100270002D9A0F90DF91CF9108954198439A22983B
:10028000239824982598429A00C01A9902C080E0C9
:1002900001C080E11B9980621C9980641D9980686F
:1002A000429800C0429A00C01A9981601B998260EE
:1002B0001C9984601D99886042980895CF93DF93BC
:1002C000C0E6DAEEDADF87FF04C0209711F021974D
:1002D000F9CF81E090E00197F1F7CD2B19F0DF9194
:1002E000CF91CBCF8FEFDF91CF910895CF93C82FD0
:1002F000E5DF60E08C2FCF918DCFCF93C82FDEDF6D
:1003000061E08C2FCF9186CF611102C0805801C06F
:100310008054ECCFD3DF90E0089581E0E7CF82E016
:10032000E5CFCF93C82FCADFCA3041F4803410F430
:1003300080E401C080E08058CF91D8CF803119F49B
:1003400060E080EC04C0803519F460E080E862DF92
:10035000B5DF61E08C2FCF915DCFCF93DF93EC01C0
:100360008991882311F0DDDFFBCFDF91CF910895D4
:10037000CF93DF93FC018491EF012196882319F03C
:10038000D0DFFE01F8CFDF91CF910895CF93C82F32
:10039000399A3B9A3A9A229A239A249A259AE0E922
:1003A000F9E33197F1F72B9A2A9A30DFE5EFF1E183
:1003B0003197F1F72BDFEAE3F0E03197F1F726DF31
:1003C000EAE3F0E03197F1F72A9820DFEAE3F0E082
:1003D0003197F1F788E28ADF71DF8F3F49F088E0DB
:1003E00085DF9BDF86E082DF8C2F80DF80E001C02D
:1003F0008FEFCF9108950E9474000E94AF00AEE08D
:10040000B0E0E5E0F2E00C94A7040D891E8986E0D7
:100410008C831A8309838FEF9FE79E838D83AE01C0
:10042000475E5F4F6F89788DCE0101960E94210251
:10043000EF81F885E00FF11F10822E96E4E00C9416
:10044000C304ACE0B0E0E7E2F2E00C9499047C0174
:100450006B018A01FC0117821682838181FFBDC175
:10046000CE0101964C01F7019381F60193FD859130
:1004700093FF81916F01882309F4ABC1853239F470
:1004800093FD859193FF81916F01853229F4B70126
:1004900090E00E940904E7CF512C312C20E020325B
:1004A000A0F48B3269F030F4803259F0833269F471
:1004B00020612CC08D3239F0803339F4216026C0A0
:1004C0002260246023C0286021C027FD27C030EDB2
:1004D000380F3A3078F426FF06C0FAE05F9E300D00
:1004E0001124532E13C08AE0389E300D1124332E70
:1004F00020620CC08E3221F426FD6BC1206406C040
:100500008C3611F4206802C0883641F4F60193FD60
:10051000859193FF81916F018111C1CF982F9F7DAC
:100520009554933028F40C5F1F4FFFE3F9830DC0FF
:10053000833631F0833771F0833509F05BC022C018
:10054000F801808189830E5F1F4F44244394512C0E
:10055000540115C03801F2E06F0E711CF801A08043
:10056000B18026FF03C0652D70E002C06FEF7FEF02
:10057000C5012C870E94FE032C0183012C852F7757
:10058000222E17C03801F2E06F0E711CF801A08016
:10059000B18026FF03C0652D70E002C06FEF7FEFD2
:1005A000C5012C870E94F3032C012C852068222E84
:1005B000830123FC1BC0832D90E048165906B0F43C
:1005C000B70180E290E00E9409043A94F4CFF5016B
:1005D00027FC859127FE81915F01B70190E00E9481
:1005E000090431103A94F1E04F1A510841145104B2
:1005F00071F7E5C0843611F0893639F5F80127FF27
:1006000007C060817181828193810C5F1F4F08C098
:1006100060817181882777FD8095982F0E5F1F4F2D
:100620002F76B22E97FF09C09095809570956195B1
:100630007F4F8F4F9F4F2068B22E2AE030E0A401F9
:100640000E943B04A82EA81844C0853729F42F7EA9
:10065000B22E2AE030E025C0F22FF97FBF2E8F3670
:10066000C1F018F4883579F0B4C0803719F08837B4
:1006700021F0AFC02F2F2061B22EB4FE0DC08B2D04
:100680008460B82E09C024FF0AC09F2F9660B92E3F
:1006900006C028E030E005C020E130E002C020E1E3
:1006A00032E0F801B7FE07C06081718182819381D9
:1006B0000C5F1F4F06C06081718180E090E00E5F8B
:1006C0001F4FA4010E943B04A82EA818FB2DFF7702
:1006D000BF2EB6FE0BC02B2D2E7FA51450F4B4FEFA
:1006E0000AC0B2FC08C02B2D2E7E05C07A2C2B2D03
:1006F00003C07A2C01C0752C24FF0DC0FE01EA0D49
:10070000F11D8081803311F4297E09C022FF06C0CB
:100710007394739404C0822F867809F0739423FD38
:1007200013C020FF06C05A2C731418F4530C57182A
:10073000732C731468F4B70180E290E02C870E9458
:10074000090473942C85F5CF731410F4371801C085
:10075000312C24FF12C0B70180E390E02C870E9467
:1007600009042C8522FF17C021FF03C088E590E013
:1007700002C088E790E0B7010CC0822F867859F05C
:1007800021FD02C080E201C08BE227FD8DE2B701AE
:1007900090E00E940904A51438F4B70180E390E0CA
:1007A0000E9409045A94F7CFAA94F401EA0DF11DAE
:1007B0008081B70190E00E940904A110F5CF332099
:1007C00009F451CEB70180E290E00E9409043A9406
:1007D000F6CFF7018681978102C08FEF9FEF2C96AD
:1007E000E2E10C94B504FC010590615070400110E9
:1007F000D8F7809590958E0F9F1F0895FC0161504A
:10080000704001900110D8F7809590958E0F9F1F32
:1008100008950F931F93CF93DF93182F092FEB01A8
:100820008B8181FD03C08FEF9FEF20C082FF10C03E
:100830004E815F812C813D81421753077CF4E88112
:10084000F9819F012F5F3F4F39832883108306C0B2
:10085000E885F985812F0995892B29F72E813F811C
:100860002F5F3F4F3F832E83812F902FDF91CF91BA
:100870001F910F910895FA01AA27283051F12031D4
:1008800081F1E8946F936E7F6E5F7F4F8F4F9F4F24
:10089000AF4FB1E03ED0B4E03CD0670F781F891F66
:1008A0009A1FA11D680F791F8A1F911DA11D6A0F34
:1008B000711D811D911DA11D20D009F468943F91E7
:1008C0002AE0269F11243019305D3193DEF6CF01E6
:1008D0000895462F4770405D4193B3E00FD0C9F7AC
:1008E000F6CF462F4F70405D4A3318F0495D31FD19
:1008F0004052419302D0A9F7EACFB4E0A69597956C
:10090000879577956795BA95C9F700976105710541
:1009100008959B01AC010A2E06945795479537958B
:100920002795BA95C9F7620F731F841F951FA01DE5
:1009300008952F923F924F925F926F927F928F9283
:100940009F92AF92BF92CF92DF92EF92FF920F935E
:100950001F93CF93DF93CDB7DEB7CA1BDB0B0FB668
:10096000F894DEBF0FBECDBF09942A883988488825
:100970005F846E847D848C849B84AA84B984C884BB
:10098000DF80EE80FD800C811B81AA81B981CE0FB2
:10099000D11D0FB6F894DEBF0FBECDBFED01089597
:0409A000F894FFCFF9
:1009A40052504D2076616C7565203D2025347500CC
:1009B40050574D2076616C7565203D2025347500B7
:00000001FF
